{
  "contractName": "ProofOfExistence3",
  "abi": [
    {
      "constant": false,
      "inputs": [
        {
          "internalType": "string",
          "name": "document",
          "type": "string"
        }
      ],
      "name": "notarize",
      "outputs": [],
      "payable": false,
      "stateMutability": "nonpayable",
      "type": "function"
    },
    {
      "constant": true,
      "inputs": [
        {
          "internalType": "string",
          "name": "document",
          "type": "string"
        }
      ],
      "name": "proofFor",
      "outputs": [
        {
          "internalType": "bytes32",
          "name": "",
          "type": "bytes32"
        }
      ],
      "payable": false,
      "stateMutability": "pure",
      "type": "function"
    },
    {
      "constant": true,
      "inputs": [
        {
          "internalType": "string",
          "name": "document",
          "type": "string"
        }
      ],
      "name": "checkDocument",
      "outputs": [
        {
          "internalType": "bool",
          "name": "",
          "type": "bool"
        }
      ],
      "payable": false,
      "stateMutability": "view",
      "type": "function"
    }
  ],
  "bytecode": "0x608060405234801561001057600080fd5b5061037c806100206000396000f3fe608060405234801561001057600080fd5b50600436106100415760003560e01c806353fb9233146100465780637183616c14610119578063f6c1acdf14610192575b600080fd5b6100ff6004803603602081101561005c57600080fd5b810190808035906020019064010000000081111561007957600080fd5b82018360208201111561008b57600080fd5b803590602001918460018302840111640100000000831117156100ad57600080fd5b91908080601f016020809104026020016040519081016040528093929190818152602001838380828437600081840152601f19601f820116905080830192505050505050509192919290505050610261565b604051808215151515815260200191505060405180910390f35b6101906004803603602081101561012f57600080fd5b810190808035906020019064010000000081111561014c57600080fd5b82018360208201111561015e57600080fd5b8035906020019184600183028401116401000000008311171561018057600080fd5b9091929391929390505050610280565b005b61024b600480360360208110156101a857600080fd5b81019080803590602001906401000000008111156101c557600080fd5b8201836020820111156101d757600080fd5b803590602001918460018302840111640100000000831117156101f957600080fd5b91908080601f016020809104026020016040519081016040528093929190818152602001838380828437600081840152601f19601f8201169050808301925050505050505091929192905050506102df565b6040518082815260200191505060405180910390f35b60008061026d836102df565b9050610278816102f0565b915050919050565b60006102cf83838080601f016020809104026020016040519081016040528093929190818152602001838380828437600081840152601f19601f820116905080830192505050505050506102df565b90506102da81610319565b505050565b600081805190602001209050919050565b600080600083815260200190815260200160002060009054906101000a900460ff169050919050565b600160008083815260200190815260200160002060006101000a81548160ff0219169083151502179055505056fea265627a7a723158203c8428486cd6df7331c4096096355a184ca6955afe79e224dfeeb2774110d32864736f6c63430005100032",
  "source": "pragma solidity ^0.5.0;\r\n\r\n\r\ncontract ProofOfExistence3 {\r\n    mapping(bytes32 => bool) private proofs;\r\n\r\n    // store a proof of existence in the contract state\r\n    function storeProof(bytes32 proof) internal {\r\n        proofs[proof] = true;\r\n    }\r\n\r\n    // calculate and store the proof for a document\r\n    function notarize(string calldata document) external {\r\n        bytes32 proof = proofFor(document);\r\n        storeProof(proof);\r\n    }\r\n\r\n    // helper function to get a document's sha256\r\n    function proofFor(string memory document) public pure returns (bytes32) {\r\n        return keccak256(bytes(document));\r\n    }\r\n\r\n    // check if a document has been notarized\r\n    function checkDocument(string memory document) public view returns (bool) {\r\n        bytes32 proof = proofFor(document);\r\n        return hasProof(proof);\r\n    }\r\n\r\n    // returns true if proof is stored\r\n    function hasProof(bytes32 proof) internal view returns (bool) {\r\n        return proofs[proof];\r\n    }\r\n}\r\n",
  "sourcePath": "C:\\Users\\tobog\\documents\\consensys\\proof-of-existence\\contracts\\ProofOfExistence3.sol",
  "compiler": {
    "name": "solc",
    "version": "0.5.16+commit.9c3226ce.Emscripten.clang"
  },
  "schemaVersion": "3.0.23",
  "updatedAt": "2020-05-11T16:41:53.150Z",
  "networkType": "ethereum",
  "devdoc": {
    "methods": {}
  },
  "userdoc": {
    "methods": {}
  }
}